{
  "_format": "hh-sol-artifact-1",
  "contractName": "ALP",
  "sourceName": "contracts/ALP.sol",
  "abi": [
    {
      "inputs": [],
      "stateMutability": "nonpayable",
      "type": "constructor"
    },
    {
      "anonymous": false,
      "inputs": [
        {
          "indexed": true,
          "internalType": "address",
          "name": "sender",
          "type": "address"
        },
        {
          "indexed": false,
          "internalType": "address",
          "name": "token",
          "type": "address"
        },
        {
          "indexed": false,
          "internalType": "uint256",
          "name": "val",
          "type": "uint256"
        }
      ],
      "name": "Deposit",
      "type": "event"
    },
    {
      "anonymous": false,
      "inputs": [
        {
          "indexed": false,
          "internalType": "uint256",
          "name": "reserve0",
          "type": "uint256"
        },
        {
          "indexed": false,
          "internalType": "uint256",
          "name": "reserve1",
          "type": "uint256"
        }
      ],
      "name": "Sync",
      "type": "event"
    },
    {
      "anonymous": false,
      "inputs": [
        {
          "indexed": true,
          "internalType": "address",
          "name": "sender",
          "type": "address"
        },
        {
          "indexed": false,
          "internalType": "address",
          "name": "token",
          "type": "address"
        },
        {
          "indexed": false,
          "internalType": "uint256",
          "name": "val",
          "type": "uint256"
        }
      ],
      "name": "Withdraw",
      "type": "event"
    },
    {
      "inputs": [
        {
          "internalType": "address",
          "name": "token",
          "type": "address"
        },
        {
          "internalType": "uint256",
          "name": "val",
          "type": "uint256"
        }
      ],
      "name": "deposit",
      "outputs": [],
      "stateMutability": "nonpayable",
      "type": "function"
    },
    {
      "inputs": [],
      "name": "factory",
      "outputs": [
        {
          "internalType": "address",
          "name": "",
          "type": "address"
        }
      ],
      "stateMutability": "view",
      "type": "function"
    },
    {
      "inputs": [],
      "name": "getReserves",
      "outputs": [
        {
          "internalType": "uint256",
          "name": "_reserve0",
          "type": "uint256"
        },
        {
          "internalType": "uint256",
          "name": "_reserve1",
          "type": "uint256"
        }
      ],
      "stateMutability": "view",
      "type": "function"
    },
    {
      "inputs": [
        {
          "internalType": "address",
          "name": "_token0",
          "type": "address"
        },
        {
          "internalType": "address",
          "name": "_token1",
          "type": "address"
        }
      ],
      "name": "initialize",
      "outputs": [],
      "stateMutability": "nonpayable",
      "type": "function"
    },
    {
      "inputs": [
        {
          "internalType": "uint256",
          "name": "leverage",
          "type": "uint256"
        },
        {
          "internalType": "uint256",
          "name": "amount",
          "type": "uint256"
        },
        {
          "internalType": "address",
          "name": "token",
          "type": "address"
        }
      ],
      "name": "requestReserve",
      "outputs": [
        {
          "internalType": "uint256",
          "name": "val",
          "type": "uint256"
        },
        {
          "internalType": "uint256",
          "name": "leverageAv",
          "type": "uint256"
        }
      ],
      "stateMutability": "nonpayable",
      "type": "function"
    },
    {
      "inputs": [],
      "name": "token0",
      "outputs": [
        {
          "internalType": "address",
          "name": "",
          "type": "address"
        }
      ],
      "stateMutability": "view",
      "type": "function"
    },
    {
      "inputs": [],
      "name": "token1",
      "outputs": [
        {
          "internalType": "address",
          "name": "",
          "type": "address"
        }
      ],
      "stateMutability": "view",
      "type": "function"
    },
    {
      "inputs": [
        {
          "internalType": "address",
          "name": "token",
          "type": "address"
        },
        {
          "internalType": "uint256",
          "name": "val",
          "type": "uint256"
        }
      ],
      "name": "withdraw",
      "outputs": [],
      "stateMutability": "nonpayable",
      "type": "function"
    }
  ],
  "bytecode": "0x6080604052600160055534801561001557600080fd5b50600080546001600160a01b03191633179055610abc806100376000396000f3fe608060405234801561001057600080fd5b50600436106100885760003560e01c8063c45a01551161005b578063c45a015514610101578063d21220a714610114578063f14e29f714610127578063f3fef3a31461013a57600080fd5b80630902f1ac1461008d5780630dfe1681146100ae57806347e7ef24146100d9578063485cc955146100ee575b600080fd5b6003546004545b604080519283526020830191909152015b60405180910390f35b6001546100c1906001600160a01b031681565b6040516001600160a01b0390911681526020016100a5565b6100ec6100e736600461092c565b61014d565b005b6100ec6100fc366004610956565b6102a8565b6000546100c1906001600160a01b031681565b6002546100c1906001600160a01b031681565b610094610135366004610989565b610321565b6100ec61014836600461092c565b610472565b6001546001600160a01b038381169116148061017657506002546001600160a01b038381169116145b6101c25760405162461bcd60e51b81526020600482015260186024820152771053140e88151bdad95b88191bdb89dd081cdd5c1c1bdc9d60421b60448201526064015b60405180910390fd5b6101ce82333084610579565b6001546001600160a01b03838116911614156102015780600360008282546101f691906109d4565b909155506102199050565b806004600082825461021391906109d4565b90915550505b604080516001600160a01b03841681526020810183905233917f5548c837ab068cf56a2c2479df0882a4922fd203edb7517321831d95078c5f6291015b60405180910390a27fcf2aa50876cdfbb541206f89af0ee78d44a2abf8d328e37fa4917f982149848a60035460045460405161029c929190918252602082015260400190565b60405180910390a15050565b6000546001600160a01b031633146102f35760405162461bcd60e51b815260206004820152600e60248201526d20a6281d102327a92124a22222a760911b60448201526064016101b9565b600180546001600160a01b039384166001600160a01b03199182161790915560028054929093169116179055565b600080606485111561036e5760405162461bcd60e51b8152602060048201526016602482015275414c503a20746f6f206d756368206c6576657261676560501b60448201526064016101b9565b6103796001866109ec565b90506103858185610a03565b6001549092506000906001600160a01b038581169116146103a8576004546103ac565b6003545b90508281116104085760405162461bcd60e51b815260206004820152602260248201527f414c503a20496e73756666696369656e742066756e647320696e207265736572604482015261766560f01b60648201526084016101b9565b6104138433856106b7565b61041e8433856107e6565b6001546001600160a01b038581169116141561045157826003600082825461044691906109ec565b909155506104699050565b826004600082825461046391906109ec565b90915550505b50935093915050565b6001546001600160a01b038381169116148061049b57506002546001600160a01b038381169116145b6104e25760405162461bcd60e51b81526020600482015260186024820152771053140e88151bdad95b88191bdb89dd081cdd5c1c1bdc9d60421b60448201526064016101b9565b6104ed8233836107e6565b6001546001600160a01b038381169116141561052057806003600082825461051591906109ec565b909155506105389050565b806004600082825461053291906109ec565b90915550505b604080516001600160a01b03841681526020810183905233917f9b1bfa7fa9ee420a16e124f794c35ac9f90472acc99140eb2f6447c714cad8eb9101610256565b604080516001600160a01b0385811660248301528481166044830152606480830185905283518084039091018152608490920183526020820180516001600160e01b03166323b872dd60e01b17905291516000928392908816916105dd9190610a22565b6000604051808303816000865af19150503d806000811461061a576040519150601f19603f3d011682016040523d82523d6000602084013e61061f565b606091505b50915091508180156106495750805115806106495750808060200190518101906106499190610a5d565b6106af5760405162461bcd60e51b815260206004820152603160248201527f5472616e7366657248656c7065723a3a7472616e7366657246726f6d3a207472604482015270185b9cd9995c919c9bdb4819985a5b1959607a1b60648201526084016101b9565b505050505050565b604080516001600160a01b038481166024830152604480830185905283518084039091018152606490920183526020820180516001600160e01b031663095ea7b360e01b17905291516000928392908716916107139190610a22565b6000604051808303816000865af19150503d8060008114610750576040519150601f19603f3d011682016040523d82523d6000602084013e610755565b606091505b509150915081801561077f57508051158061077f57508080602001905181019061077f9190610a5d565b6107df5760405162461bcd60e51b815260206004820152602b60248201527f5472616e7366657248656c7065723a3a73616665417070726f76653a2061707060448201526a1c9bdd994819985a5b195960aa1b60648201526084016101b9565b5050505050565b604080516001600160a01b038481166024830152604480830185905283518084039091018152606490920183526020820180516001600160e01b031663a9059cbb60e01b17905291516000928392908716916108429190610a22565b6000604051808303816000865af19150503d806000811461087f576040519150601f19603f3d011682016040523d82523d6000602084013e610884565b606091505b50915091508180156108ae5750805115806108ae5750808060200190518101906108ae9190610a5d565b6107df5760405162461bcd60e51b815260206004820152602d60248201527f5472616e7366657248656c7065723a3a736166655472616e736665723a20747260448201526c185b9cd9995c8819985a5b1959609a1b60648201526084016101b9565b80356001600160a01b038116811461092757600080fd5b919050565b6000806040838503121561093f57600080fd5b61094883610910565b946020939093013593505050565b6000806040838503121561096957600080fd5b61097283610910565b915061098060208401610910565b90509250929050565b60008060006060848603121561099e57600080fd5b83359250602084013591506109b560408501610910565b90509250925092565b634e487b7160e01b600052601160045260246000fd5b600082198211156109e7576109e76109be565b500190565b6000828210156109fe576109fe6109be565b500390565b6000816000190483118215151615610a1d57610a1d6109be565b500290565b6000825160005b81811015610a435760208186018101518583015201610a29565b81811115610a52576000828501525b509190910192915050565b600060208284031215610a6f57600080fd5b81518015158114610a7f57600080fd5b939250505056fea26469706673582212204a59c32b48c3c79fcc37aa675ec7d0c19e5cac3e8ec861cc9ec7192aad001a6a64736f6c63430008090033",
  "linkReferences": {},
  "deployedLinkReferences": {}
}