{
  "_format": "hh-sol-artifact-1",
  "contractName": "Deforex",
  "sourceName": "contracts/Deforex.sol",
  "abi": [
    {
      "anonymous": false,
      "inputs": [
        {
          "indexed": true,
          "internalType": "address",
          "name": "previousOwner",
          "type": "address"
        },
        {
          "indexed": true,
          "internalType": "address",
          "name": "newOwner",
          "type": "address"
        }
      ],
      "name": "OwnershipTransferred",
      "type": "event"
    },
    {
      "anonymous": false,
      "inputs": [
        {
          "indexed": false,
          "internalType": "uint256",
          "name": "id",
          "type": "uint256"
        },
        {
          "indexed": false,
          "internalType": "uint256",
          "name": "amountToAlp",
          "type": "uint256"
        },
        {
          "indexed": false,
          "internalType": "uint256",
          "name": "amountToTrader",
          "type": "uint256"
        }
      ],
      "name": "PositionClose",
      "type": "event"
    },
    {
      "anonymous": false,
      "inputs": [
        {
          "indexed": false,
          "internalType": "uint256",
          "name": "id",
          "type": "uint256"
        }
      ],
      "name": "PositionCreated",
      "type": "event"
    },
    {
      "anonymous": false,
      "inputs": [
        {
          "indexed": false,
          "internalType": "uint256",
          "name": "id",
          "type": "uint256"
        },
        {
          "indexed": false,
          "internalType": "uint256",
          "name": "amountToAlp",
          "type": "uint256"
        },
        {
          "indexed": false,
          "internalType": "address",
          "name": "liquidator",
          "type": "address"
        }
      ],
      "name": "PositionLiquidation",
      "type": "event"
    },
    {
      "inputs": [],
      "name": "_exchange",
      "outputs": [
        {
          "internalType": "contract IExchange",
          "name": "",
          "type": "address"
        }
      ],
      "stateMutability": "view",
      "type": "function"
    },
    {
      "inputs": [],
      "name": "_factory",
      "outputs": [
        {
          "internalType": "contract IFactory",
          "name": "",
          "type": "address"
        }
      ],
      "stateMutability": "view",
      "type": "function"
    },
    {
      "inputs": [],
      "name": "_positionId",
      "outputs": [
        {
          "internalType": "uint256",
          "name": "",
          "type": "uint256"
        }
      ],
      "stateMutability": "view",
      "type": "function"
    },
    {
      "inputs": [
        {
          "internalType": "uint256",
          "name": "",
          "type": "uint256"
        }
      ],
      "name": "_positions",
      "outputs": [
        {
          "internalType": "uint256",
          "name": "amount",
          "type": "uint256"
        },
        {
          "internalType": "uint256",
          "name": "leverage",
          "type": "uint256"
        },
        {
          "internalType": "uint256",
          "name": "amountOut",
          "type": "uint256"
        },
        {
          "internalType": "address",
          "name": "tokenSell",
          "type": "address"
        },
        {
          "internalType": "address",
          "name": "tokenBuy",
          "type": "address"
        },
        {
          "internalType": "address",
          "name": "trader",
          "type": "address"
        },
        {
          "internalType": "enum IDeforex.PositionStatus",
          "name": "status",
          "type": "uint8"
        }
      ],
      "stateMutability": "view",
      "type": "function"
    },
    {
      "inputs": [
        {
          "internalType": "uint256",
          "name": "id",
          "type": "uint256"
        },
        {
          "internalType": "bytes",
          "name": "path",
          "type": "bytes"
        }
      ],
      "name": "closePosition",
      "outputs": [],
      "stateMutability": "nonpayable",
      "type": "function"
    },
    {
      "inputs": [
        {
          "internalType": "address",
          "name": "tokenSell",
          "type": "address"
        },
        {
          "internalType": "address",
          "name": "tokenBuy",
          "type": "address"
        },
        {
          "internalType": "uint256",
          "name": "amount",
          "type": "uint256"
        },
        {
          "internalType": "uint256",
          "name": "leverage",
          "type": "uint256"
        },
        {
          "internalType": "bytes",
          "name": "path",
          "type": "bytes"
        }
      ],
      "name": "createPosition",
      "outputs": [],
      "stateMutability": "nonpayable",
      "type": "function"
    },
    {
      "inputs": [
        {
          "internalType": "uint256",
          "name": "id",
          "type": "uint256"
        },
        {
          "internalType": "bytes",
          "name": "path",
          "type": "bytes"
        }
      ],
      "name": "liquidation",
      "outputs": [],
      "stateMutability": "nonpayable",
      "type": "function"
    },
    {
      "inputs": [
        {
          "internalType": "uint256[]",
          "name": "ids",
          "type": "uint256[]"
        },
        {
          "internalType": "bytes[]",
          "name": "path",
          "type": "bytes[]"
        }
      ],
      "name": "liquidation",
      "outputs": [],
      "stateMutability": "nonpayable",
      "type": "function"
    },
    {
      "inputs": [],
      "name": "owner",
      "outputs": [
        {
          "internalType": "address",
          "name": "",
          "type": "address"
        }
      ],
      "stateMutability": "view",
      "type": "function"
    },
    {
      "inputs": [],
      "name": "renounceOwnership",
      "outputs": [],
      "stateMutability": "nonpayable",
      "type": "function"
    },
    {
      "inputs": [
        {
          "internalType": "contract IExchange",
          "name": "exchange",
          "type": "address"
        }
      ],
      "name": "setExchange",
      "outputs": [],
      "stateMutability": "nonpayable",
      "type": "function"
    },
    {
      "inputs": [
        {
          "internalType": "contract IFactory",
          "name": "factory",
          "type": "address"
        }
      ],
      "name": "setFactory",
      "outputs": [],
      "stateMutability": "nonpayable",
      "type": "function"
    },
    {
      "inputs": [
        {
          "internalType": "address",
          "name": "newOwner",
          "type": "address"
        }
      ],
      "name": "transferOwnership",
      "outputs": [],
      "stateMutability": "nonpayable",
      "type": "function"
    }
  ],
  "bytecode": "0x608060405234801561001057600080fd5b5061001a3361001f565b61006f565b600080546001600160a01b038381166001600160a01b0319831681178455604051919092169283917f8be0079c531659141344cd1fd0a4f28419497f9722a3daafe3b4186f6b6457e09190a35050565b6117428061007e6000396000f3fe608060405234801561001057600080fd5b50600436106100cf5760003560e01c80639d2214971161008c578063ac70481111610066578063ac70481114610227578063b9780f331461023e578063c5cc6b6a14610251578063f2fde38b1461026457600080fd5b80639d221497146101ee578063a127318214610201578063a6498b271461021457600080fd5b80630e826113146100d45780635bb47808146100e957806367b1f5df14610119578063715018a6146101495780638da5cb5b1461015157806397d6958d1461017b575b600080fd5b6100e76100e23660046111bf565b610277565b005b6100e76100f7366004611220565b600280546001600160a01b0319166001600160a01b0392909216919091179055565b6100e7610127366004611220565b600380546001600160a01b0319166001600160a01b0392909216919091179055565b6100e76102fb565b6000546001600160a01b03165b6040516001600160a01b0390911681526020015b60405180910390f35b6101db610189366004611244565b60046020819052600091825260409091208054600182015460028301546003840154948401546005909401549294919390926001600160a01b039283169291821691811690600160a01b900460ff1687565b6040516101729796959493929190611291565b6100e76101fc3660046111bf565b61030f565b6100e761020f3660046112e0565b6104ac565b6100e76102223660046113b7565b610901565b61023060015481565b604051908152602001610172565b60035461015e906001600160a01b031681565b60025461015e906001600160a01b031681565b6100e7610272366004611220565b6109c2565b600080610285858585610a3b565b915091506000806102968484610bf3565b60058601805460ff60a01b1916600160a01b179055604080518a81526020810184905290810182905291935091507f0f33bbc279d851e67d102f7abb2e8c51416838820555673e8885cfed07e10210906060015b60405180910390a150505050505050565b610303610d35565b61030d6000610d8f565b565b60008061031d858585610a3b565b9150915060006001836001015461033491906114a3565b835461034091906114ba565b9050808211156103a65760405162461bcd60e51b815260206004820152602660248201527f4465666f7265783a204c69717569646174696f6e20636f6e646974696f6e206e6044820152651bdd081b595d60d21b60648201526084015b60405180910390fd5b6002546003840154600480860154604051632712392b60e01b81526001600160a01b0393841692810192909252821660248201526000929190911690632712392b9060440160206040518083038186803b15801561040357600080fd5b505afa158015610417573d6000803e3d6000fd5b505050506040513d601f19601f8201168201806040525081019061043b91906114d9565b6003850154909150610457906001600160a01b03168285610ddf565b60058401805460ff60a01b1916600160a11b179055604080518881526020810185905233918101919091527ff4d619cbc0fb8c08d3475bfc2a95971accd04ed1e4c1f8b959c324ee94268339906060016102ea565b6104b886333087610f10565b600254604051632712392b60e01b81526001600160a01b03888116600483015287811660248301526000921690632712392b9060440160206040518083038186803b15801561050657600080fd5b505afa15801561051a573d6000803e3d6000fd5b505050506040513d601f19601f8201168201806040525081019061053e91906114d9565b90506001600160a01b0381166105665760405162461bcd60e51b815260040161039d906114f6565b60405163f14e29f760e01b815260048101859052602481018690526001600160a01b038881166044830152829160009183169063f14e29f7906064016040805180830381600087803b1580156105bb57600080fd5b505af11580156105cf573d6000803e3d6000fd5b505050506040513d601f19601f820116820180604052508101906105f39190611525565b50600254604051633c88f84160e11b81529192506000916001600160a01b0390911690637911f0829061062a908490600401611549565b60206040518083038186803b15801561064257600080fd5b505afa158015610656573d6000803e3d6000fd5b505050506040513d601f19601f8201168201806040525081019061067a91906114d9565b90506001600160a01b0381166106a25760405162461bcd60e51b815260040161039d906114f6565b6106ac888361155c565b91506106b98a828461104e565b6000816001600160a01b03166375baab8b6040518060c00160405280868152602001600081526020018e6001600160a01b031681526020018d6001600160a01b031681526020014281526020018a8a8080601f01602080910402602001604051908101604052809392919081815260200183838082843760009201919091525050509152506040516001600160e01b031960e084901b16815261075f91906004016115a0565b6040805180830381600087803b15801561077857600080fd5b505af115801561078c573d6000803e3d6000fd5b505050506040513d601f19601f820116820180604052508101906107b09190611525565b6040805160e0810182528c8152602081018c90529081018290526001600160a01b03808f1660608301528d1660808201523360a0820152909250905060c0810160008152506004600060016000815461080890611620565b9182905550815260208082019290925260409081016000208351815591830151600183015582015160028083019190915560608301516003830180546001600160a01b03199081166001600160a01b03938416179091556080850151600485018054831691841691909117905560a085015160058501805492831691909316908117835560c0860151936001600160a81b03199092161790600160a01b9084908111156108b7576108b761125d565b0217905550506001546040519081527f97c3f5c9077358c7266488de6a3ebba41df38417797d90b665239fcb506c840a915060200160405180910390a15050505050505050505050565b60005b835181116109bc57306001600160a01b0316639d22149785838151811061092d5761092d61163b565b60200260200101518585858181106109475761094761163b565b90506020028101906109599190611651565b6040518463ffffffff1660e01b815260040161097793929190611698565b600060405180830381600087803b15801561099157600080fd5b505af11580156109a5573d6000803e3d6000fd5b5050505080806109b490611620565b915050610904565b50505050565b6109ca610d35565b6001600160a01b038116610a2f5760405162461bcd60e51b815260206004820152602660248201527f4f776e61626c653a206e6577206f776e657220697320746865207a65726f206160448201526564647265737360d01b606482015260840161039d565b610a3881610d8f565b50565b60008381526004602081905260408083206002549151633c88f84160e11b815290939283926001600160a01b031691637911f08291610a7c91859101611549565b60206040518083038186803b158015610a9457600080fd5b505afa158015610aa8573d6000803e3d6000fd5b505050506040513d601f19601f82011682018060405250810190610acc91906114d9565b60048401546002850154919250610af0916001600160a01b0390911690839061104e565b6040805160c08101825260028501548152600060208083019190915260048601546001600160a01b03908116838501526003870154811660608401524260808401528351601f89018390048302810183019094528784528416926375baab8b929160a0830191908a908a908190840183828082843760009201919091525050509152506040516001600160e01b031960e084901b168152610b9491906004016115a0565b6040805180830381600087803b158015610bad57600080fd5b505af1158015610bc1573d6000803e3d6000fd5b505050506040513d601f19601f82011682018060405250810190610be59190611525565b939793965092945050505050565b6002546003830154600480850154604051632712392b60e01b81526001600160a01b03938416928101929092528216602482015260009283928392911690632712392b9060440160206040518083038186803b158015610c5257600080fd5b505afa158015610c66573d6000803e3d6000fd5b505050506040513d601f19601f82011682018060405250810190610c8a91906114d9565b905060018560010154610c9d91906114a3565b8554610ca991906114ba565b9250828410610cc357610cbc83856114a3565b9150610cc7565b8392505b6001600160a01b038116610ced5760405162461bcd60e51b815260040161039d906114f6565b6003850154610d06906001600160a01b03168285610ddf565b8115610d2d5760038501546005860154610d2d916001600160a01b03908116911684610ddf565b509250929050565b6000546001600160a01b0316331461030d5760405162461bcd60e51b815260206004820181905260248201527f4f776e61626c653a2063616c6c6572206973206e6f7420746865206f776e6572604482015260640161039d565b600080546001600160a01b038381166001600160a01b0319831681178455604051919092169283917f8be0079c531659141344cd1fd0a4f28419497f9722a3daafe3b4186f6b6457e09190a35050565b604080516001600160a01b038481166024830152604480830185905283518084039091018152606490920183526020820180516001600160e01b031663a9059cbb60e01b1790529151600092839290871691610e3b91906116ce565b6000604051808303816000865af19150503d8060008114610e78576040519150601f19603f3d011682016040523d82523d6000602084013e610e7d565b606091505b5091509150818015610ea7575080511580610ea7575080806020019051810190610ea791906116ea565b610f095760405162461bcd60e51b815260206004820152602d60248201527f5472616e7366657248656c7065723a3a736166655472616e736665723a20747260448201526c185b9cd9995c8819985a5b1959609a1b606482015260840161039d565b5050505050565b604080516001600160a01b0385811660248301528481166044830152606480830185905283518084039091018152608490920183526020820180516001600160e01b03166323b872dd60e01b1790529151600092839290881691610f7491906116ce565b6000604051808303816000865af19150503d8060008114610fb1576040519150601f19603f3d011682016040523d82523d6000602084013e610fb6565b606091505b5091509150818015610fe0575080511580610fe0575080806020019051810190610fe091906116ea565b6110465760405162461bcd60e51b815260206004820152603160248201527f5472616e7366657248656c7065723a3a7472616e7366657246726f6d3a207472604482015270185b9cd9995c919c9bdb4819985a5b1959607a1b606482015260840161039d565b505050505050565b604080516001600160a01b038481166024830152604480830185905283518084039091018152606490920183526020820180516001600160e01b031663095ea7b360e01b17905291516000928392908716916110aa91906116ce565b6000604051808303816000865af19150503d80600081146110e7576040519150601f19603f3d011682016040523d82523d6000602084013e6110ec565b606091505b509150915081801561111657508051158061111657508080602001905181019061111691906116ea565b610f095760405162461bcd60e51b815260206004820152602b60248201527f5472616e7366657248656c7065723a3a73616665417070726f76653a2061707060448201526a1c9bdd994819985a5b195960aa1b606482015260840161039d565b60008083601f84011261118857600080fd5b50813567ffffffffffffffff8111156111a057600080fd5b6020830191508360208285010111156111b857600080fd5b9250929050565b6000806000604084860312156111d457600080fd5b83359250602084013567ffffffffffffffff8111156111f257600080fd5b6111fe86828701611176565b9497909650939450505050565b6001600160a01b0381168114610a3857600080fd5b60006020828403121561123257600080fd5b813561123d8161120b565b9392505050565b60006020828403121561125657600080fd5b5035919050565b634e487b7160e01b600052602160045260246000fd5b60038110610a3857634e487b7160e01b600052602160045260246000fd5b87815260208101879052604081018690526001600160a01b0385811660608301528481166080830152831660a082015260e081016112ce83611273565b8260c083015298975050505050505050565b60008060008060008060a087890312156112f957600080fd5b86356113048161120b565b955060208701356113148161120b565b94506040870135935060608701359250608087013567ffffffffffffffff81111561133e57600080fd5b61134a89828a01611176565b979a9699509497509295939492505050565b634e487b7160e01b600052604160045260246000fd5b60008083601f84011261138457600080fd5b50813567ffffffffffffffff81111561139c57600080fd5b6020830191508360208260051b85010111156111b857600080fd5b6000806000604084860312156113cc57600080fd5b833567ffffffffffffffff808211156113e457600080fd5b818601915086601f8301126113f857600080fd5b813560208282111561140c5761140c61135c565b8160051b604051601f19603f830116810181811086821117156114315761143161135c565b6040529283528481018201928281018b85111561144d57600080fd5b958301955b848710156114695786358152958301958301611452565b509750508701359250508082111561148057600080fd5b506111fe86828701611372565b634e487b7160e01b600052601160045260246000fd5b6000828210156114b5576114b561148d565b500390565b60008160001904831182151516156114d4576114d461148d565b500290565b6000602082840312156114eb57600080fd5b815161123d8161120b565b6020808252601590820152744465666f7265783a205a45524f5f4144445245535360581b604082015260600190565b6000806040838503121561153857600080fd5b505080516020909101519092909150565b6020810161155683611273565b91905290565b6000821982111561156f5761156f61148d565b500190565b60005b8381101561158f578181015183820152602001611577565b838111156109bc5750506000910152565b6020815281516020820152602082015160408201526000604083015160018060a01b0380821660608501528060608601511660808501525050608083015160a083015260a083015160c08084015280518060e08501526101006116098282870160208601611574565b80601f19601f840116860101935050505092915050565b60006000198214156116345761163461148d565b5060010190565b634e487b7160e01b600052603260045260246000fd5b6000808335601e1984360301811261166857600080fd5b83018035915067ffffffffffffffff82111561168357600080fd5b6020019150368190038213156111b857600080fd5b83815260406020820152816040820152818360608301376000818301606090810191909152601f909201601f1916010192915050565b600082516116e0818460208701611574565b9190910192915050565b6000602082840312156116fc57600080fd5b8151801515811461123d57600080fdfea2646970667358221220b5d13cfd601888c19f3a7cc3ef365c4938ded58f79ec5b313db5f45b414a497c64736f6c63430008090033",
  "linkReferences": {},
  "deployedLinkReferences": {}
}