{
  "_format": "hh-sol-artifact-1",
  "contractName": "Deforex",
  "sourceName": "contracts/Deforex.sol",
  "abi": [
    {
      "anonymous": false,
      "inputs": [
        {
          "indexed": true,
          "internalType": "address",
          "name": "previousOwner",
          "type": "address"
        },
        {
          "indexed": true,
          "internalType": "address",
          "name": "newOwner",
          "type": "address"
        }
      ],
      "name": "OwnershipTransferred",
      "type": "event"
    },
    {
      "inputs": [],
      "name": "_exchange",
      "outputs": [
        {
          "internalType": "contract IExchange",
          "name": "",
          "type": "address"
        }
      ],
      "stateMutability": "view",
      "type": "function"
    },
    {
      "inputs": [],
      "name": "_factory",
      "outputs": [
        {
          "internalType": "contract IFactory",
          "name": "",
          "type": "address"
        }
      ],
      "stateMutability": "view",
      "type": "function"
    },
    {
      "inputs": [],
      "name": "_orderId",
      "outputs": [
        {
          "internalType": "uint256",
          "name": "",
          "type": "uint256"
        }
      ],
      "stateMutability": "view",
      "type": "function"
    },
    {
      "inputs": [
        {
          "internalType": "uint256",
          "name": "",
          "type": "uint256"
        }
      ],
      "name": "_orders",
      "outputs": [
        {
          "internalType": "uint256",
          "name": "amount",
          "type": "uint256"
        },
        {
          "internalType": "uint256",
          "name": "leverage",
          "type": "uint256"
        },
        {
          "internalType": "uint256",
          "name": "amountOut",
          "type": "uint256"
        },
        {
          "internalType": "address",
          "name": "tokenSell",
          "type": "address"
        },
        {
          "internalType": "address",
          "name": "tokenBuy",
          "type": "address"
        },
        {
          "internalType": "address",
          "name": "trader",
          "type": "address"
        }
      ],
      "stateMutability": "view",
      "type": "function"
    },
    {
      "inputs": [],
      "name": "closeOrder",
      "outputs": [],
      "stateMutability": "nonpayable",
      "type": "function"
    },
    {
      "inputs": [
        {
          "internalType": "uint256",
          "name": "id",
          "type": "uint256"
        }
      ],
      "name": "closePosition",
      "outputs": [],
      "stateMutability": "payable",
      "type": "function"
    },
    {
      "inputs": [
        {
          "internalType": "address",
          "name": "tokenSell",
          "type": "address"
        },
        {
          "internalType": "address",
          "name": "tokenBuy",
          "type": "address"
        },
        {
          "internalType": "uint256",
          "name": "amount",
          "type": "uint256"
        },
        {
          "internalType": "uint256",
          "name": "leverage",
          "type": "uint256"
        },
        {
          "internalType": "uint256",
          "name": "slippage",
          "type": "uint256"
        }
      ],
      "name": "createPosition",
      "outputs": [],
      "stateMutability": "payable",
      "type": "function"
    },
    {
      "inputs": [],
      "name": "owner",
      "outputs": [
        {
          "internalType": "address",
          "name": "",
          "type": "address"
        }
      ],
      "stateMutability": "view",
      "type": "function"
    },
    {
      "inputs": [],
      "name": "renounceOwnership",
      "outputs": [],
      "stateMutability": "nonpayable",
      "type": "function"
    },
    {
      "inputs": [
        {
          "internalType": "contract IExchange",
          "name": "exchange",
          "type": "address"
        }
      ],
      "name": "setExchange",
      "outputs": [],
      "stateMutability": "nonpayable",
      "type": "function"
    },
    {
      "inputs": [
        {
          "internalType": "contract IFactory",
          "name": "factory",
          "type": "address"
        }
      ],
      "name": "setFactory",
      "outputs": [],
      "stateMutability": "nonpayable",
      "type": "function"
    },
    {
      "inputs": [
        {
          "internalType": "address",
          "name": "newOwner",
          "type": "address"
        }
      ],
      "name": "transferOwnership",
      "outputs": [],
      "stateMutability": "nonpayable",
      "type": "function"
    }
  ],
  "bytecode": "0x608060405234801561001057600080fd5b5061001a3361001f565b61006f565b600080546001600160a01b038381166001600160a01b0319831681178455604051919092169283917f8be0079c531659141344cd1fd0a4f28419497f9722a3daafe3b4186f6b6457e09190a35050565b6110388061007e6000396000f3fe6080604052600436106100a75760003560e01c8063a126d60111610064578063a126d6011461021f578063aec774ba14610232578063b9780f3314610245578063c5cc6b6a14610265578063e1a22dd014610285578063f2fde38b146102a957600080fd5b80632d8dcef1146100ac5780634e5919ef146100bc5780635bb478081461015e57806367b1f5df1461019b578063715018a6146101d85780638da5cb5b146101ed575b600080fd5b3480156100b857600080fd5b505b005b3480156100c857600080fd5b5061011d6100d7366004610ddb565b60046020819052600091825260409091208054600182015460028301546003840154948401546005909401549294919390926001600160a01b0392831692918216911686565b604080519687526020870195909552938501929092526001600160a01b03908116606085015290811660808401521660a082015260c0015b60405180910390f35b34801561016a57600080fd5b506100ba610179366004610e09565b600280546001600160a01b0319166001600160a01b0392909216919091179055565b3480156101a757600080fd5b506100ba6101b6366004610e09565b600380546001600160a01b0319166001600160a01b0392909216919091179055565b3480156101e457600080fd5b506100ba6102cb565b3480156101f957600080fd5b506000546001600160a01b03165b6040516001600160a01b039091168152602001610155565b6100ba61022d366004610ddb565b6102dd565b6100ba610240366004610e2d565b610575565b34801561025157600080fd5b50600354610207906001600160a01b031681565b34801561027157600080fd5b50600254610207906001600160a01b031681565b34801561029157600080fd5b5061029b60015481565b604051908152602001610155565b3480156102b557600080fd5b506100ba6102c4366004610e09565b610928565b565b6102d36109a1565b6102c960006109fb565b6000818152600460208181526040808420815160c081018352815481526001820154938101939093526002808201548484015260038201546001600160a01b0390811660608601528286015481166080860152600590920154821660a0850152549151633c88f84160e11b8152929493911691637911f0829161036291859101610e7e565b60206040518083038186803b15801561037a57600080fd5b505afa15801561038e573d6000803e3d6000fd5b505050506040513d601f19601f820116820180604052508101906103b29190610ea6565b90506103c78260800151828460400151610a4b565b6000816001600160a01b031663767723cc6040518060a00160405280866040015181526020016000815260200186608001516001600160a01b0316815260200186606001516001600160a01b03168152602001428152506040518263ffffffff1660e01b815260040161043a9190610ec3565b6040805180830381600087803b15801561045357600080fd5b505af1158015610467573d6000803e3d6000fd5b505050506040513d601f19601f8201168201806040525081019061048b9190610f09565b60025460608601516080870151604051632712392b60e01b81526001600160a01b0392831660048201529082166024820152929450600093501690632712392b9060440160206040518083038186803b1580156104e757600080fd5b505afa1580156104fb573d6000803e3d6000fd5b505050506040513d601f19601f8201168201806040525081019061051f9190610ea6565b90506001600160a01b0381166105505760405162461bcd60e51b815260040161054790610f2d565b60405180910390fd5b61055f84606001518284610a4b565b61056e84606001518284610b73565b5050505050565b61058185333086610c9d565b600254604051632712392b60e01b81526001600160a01b03878116600483015286811660248301526000921690632712392b9060440160206040518083038186803b1580156105cf57600080fd5b505afa1580156105e3573d6000803e3d6000fd5b505050506040513d601f19601f820116820180604052508101906106079190610ea6565b90506001600160a01b03811661062f5760405162461bcd60e51b815260040161054790610f2d565b60405163f14e29f760e01b815260048101849052602481018590526001600160a01b038781166044830152829160009182919084169063f14e29f7906064016040805180830381600087803b15801561068757600080fd5b505af115801561069b573d6000803e3d6000fd5b505050506040513d601f19601f820116820180604052508101906106bf9190610f09565b600254604051633c88f84160e11b81529294509092506000916001600160a01b0390911690637911f082906106f8908490600401610e7e565b60206040518083038186803b15801561071057600080fd5b505afa158015610724573d6000803e3d6000fd5b505050506040513d601f19601f820116820180604052508101906107489190610ea6565b90506001600160a01b0381166107705760405162461bcd60e51b815260040161054790610f2d565b61077a8884610f72565b92506107878a8285610a4b565b6000816001600160a01b031663767723cc6040518060a00160405280878152602001600081526020018e6001600160a01b031681526020018d6001600160a01b03168152602001428152506040518263ffffffff1660e01b81526004016107ee9190610ec3565b6040805180830381600087803b15801561080757600080fd5b505af115801561081b573d6000803e3d6000fd5b505050506040513d601f19601f8201168201806040525081019061083f9190610f09565b9150506040518060c001604052808a81526020018981526020018281526020018c6001600160a01b031681526020018b6001600160a01b03168152602001336001600160a01b03168152506004600060016000815461089d90610f8a565b91829055508152602080820192909252604090810160002083518155918301516001830155820151600282015560608201516003820180546001600160a01b03199081166001600160a01b03938416179091556080840151600484018054831691841691909117905560a0909301516005909201805490931691161790555050505050505050505050565b6109306109a1565b6001600160a01b0381166109955760405162461bcd60e51b815260206004820152602660248201527f4f776e61626c653a206e6577206f776e657220697320746865207a65726f206160448201526564647265737360d01b6064820152608401610547565b61099e816109fb565b50565b6000546001600160a01b031633146102c95760405162461bcd60e51b815260206004820181905260248201527f4f776e61626c653a2063616c6c6572206973206e6f7420746865206f776e65726044820152606401610547565b600080546001600160a01b038381166001600160a01b0319831681178455604051919092169283917f8be0079c531659141344cd1fd0a4f28419497f9722a3daafe3b4186f6b6457e09190a35050565b604080516001600160a01b038481166024830152604480830185905283518084039091018152606490920183526020820180516001600160e01b031663095ea7b360e01b1790529151600092839290871691610aa79190610fa5565b6000604051808303816000865af19150503d8060008114610ae4576040519150601f19603f3d011682016040523d82523d6000602084013e610ae9565b606091505b5091509150818015610b13575080511580610b13575080806020019051810190610b139190610fe0565b61056e5760405162461bcd60e51b815260206004820152602b60248201527f5472616e7366657248656c7065723a3a73616665417070726f76653a2061707060448201526a1c9bdd994819985a5b195960aa1b6064820152608401610547565b604080516001600160a01b038481166024830152604480830185905283518084039091018152606490920183526020820180516001600160e01b031663a9059cbb60e01b1790529151600092839290871691610bcf9190610fa5565b6000604051808303816000865af19150503d8060008114610c0c576040519150601f19603f3d011682016040523d82523d6000602084013e610c11565b606091505b5091509150818015610c3b575080511580610c3b575080806020019051810190610c3b9190610fe0565b61056e5760405162461bcd60e51b815260206004820152602d60248201527f5472616e7366657248656c7065723a3a736166655472616e736665723a20747260448201526c185b9cd9995c8819985a5b1959609a1b6064820152608401610547565b604080516001600160a01b0385811660248301528481166044830152606480830185905283518084039091018152608490920183526020820180516001600160e01b03166323b872dd60e01b1790529151600092839290881691610d019190610fa5565b6000604051808303816000865af19150503d8060008114610d3e576040519150601f19603f3d011682016040523d82523d6000602084013e610d43565b606091505b5091509150818015610d6d575080511580610d6d575080806020019051810190610d6d9190610fe0565b610dd35760405162461bcd60e51b815260206004820152603160248201527f5472616e7366657248656c7065723a3a7472616e7366657246726f6d3a207472604482015270185b9cd9995c919c9bdb4819985a5b1959607a1b6064820152608401610547565b505050505050565b600060208284031215610ded57600080fd5b5035919050565b6001600160a01b038116811461099e57600080fd5b600060208284031215610e1b57600080fd5b8135610e2681610df4565b9392505050565b600080600080600060a08688031215610e4557600080fd5b8535610e5081610df4565b94506020860135610e6081610df4565b94979496505050506040830135926060810135926080909101359150565b6020810160038310610ea057634e487b7160e01b600052602160045260246000fd5b91905290565b600060208284031215610eb857600080fd5b8151610e2681610df4565b81518152602080830151908201526040808301516001600160a01b0390811691830191909152606080840151909116908201526080918201519181019190915260a00190565b60008060408385031215610f1c57600080fd5b505080516020909101519092909150565b6020808252601590820152744465666f7265783a205a45524f5f4144445245535360581b604082015260600190565b634e487b7160e01b600052601160045260246000fd5b60008219821115610f8557610f85610f5c565b500190565b6000600019821415610f9e57610f9e610f5c565b5060010190565b6000825160005b81811015610fc65760208186018101518583015201610fac565b81811115610fd5576000828501525b509190910192915050565b600060208284031215610ff257600080fd5b81518015158114610e2657600080fdfea26469706673582212206e2082a6b6510bf29724e8132fcff0af91d37e322e59a4aee1272dea8fbc65a364736f6c63430008090033",
  "linkReferences": {},
  "deployedLinkReferences": {}
}