{
  "_format": "hh-sol-artifact-1",
  "contractName": "UniswapExchange",
  "sourceName": "contracts/UniswapExchange.sol",
  "abi": [
    {
      "inputs": [
        {
          "internalType": "contract ISwapRouter",
          "name": "swapRouter",
          "type": "address"
        }
      ],
      "stateMutability": "nonpayable",
      "type": "constructor"
    },
    {
      "anonymous": false,
      "inputs": [
        {
          "indexed": true,
          "internalType": "address",
          "name": "previousOwner",
          "type": "address"
        },
        {
          "indexed": true,
          "internalType": "address",
          "name": "newOwner",
          "type": "address"
        }
      ],
      "name": "OwnershipTransferred",
      "type": "event"
    },
    {
      "inputs": [],
      "name": "POOL_FEE",
      "outputs": [
        {
          "internalType": "uint24",
          "name": "",
          "type": "uint24"
        }
      ],
      "stateMutability": "view",
      "type": "function"
    },
    {
      "inputs": [],
      "name": "_factory",
      "outputs": [
        {
          "internalType": "contract IFactory",
          "name": "",
          "type": "address"
        }
      ],
      "stateMutability": "view",
      "type": "function"
    },
    {
      "inputs": [],
      "name": "_swapRouter",
      "outputs": [
        {
          "internalType": "contract ISwapRouter",
          "name": "",
          "type": "address"
        }
      ],
      "stateMutability": "view",
      "type": "function"
    },
    {
      "inputs": [],
      "name": "owner",
      "outputs": [
        {
          "internalType": "address",
          "name": "",
          "type": "address"
        }
      ],
      "stateMutability": "view",
      "type": "function"
    },
    {
      "inputs": [],
      "name": "renounceOwnership",
      "outputs": [],
      "stateMutability": "nonpayable",
      "type": "function"
    },
    {
      "inputs": [
        {
          "internalType": "contract IFactory",
          "name": "factory",
          "type": "address"
        }
      ],
      "name": "setFactory",
      "outputs": [],
      "stateMutability": "nonpayable",
      "type": "function"
    },
    {
      "inputs": [
        {
          "components": [
            {
              "internalType": "uint256",
              "name": "amountIn",
              "type": "uint256"
            },
            {
              "internalType": "uint256",
              "name": "amountOut",
              "type": "uint256"
            },
            {
              "internalType": "address",
              "name": "tokenIn",
              "type": "address"
            },
            {
              "internalType": "address",
              "name": "tokenOut",
              "type": "address"
            },
            {
              "internalType": "uint256",
              "name": "timestamp",
              "type": "uint256"
            },
            {
              "internalType": "bytes",
              "name": "path",
              "type": "bytes"
            }
          ],
          "internalType": "struct IExchange.SwapParams",
          "name": "params",
          "type": "tuple"
        }
      ],
      "name": "swap",
      "outputs": [
        {
          "internalType": "uint256",
          "name": "amountIn",
          "type": "uint256"
        },
        {
          "internalType": "uint256",
          "name": "amountOut",
          "type": "uint256"
        }
      ],
      "stateMutability": "nonpayable",
      "type": "function"
    },
    {
      "inputs": [
        {
          "internalType": "address",
          "name": "newOwner",
          "type": "address"
        }
      ],
      "name": "transferOwnership",
      "outputs": [],
      "stateMutability": "nonpayable",
      "type": "function"
    }
  ],
  "bytecode": "0x60a060405234801561001057600080fd5b50604051610a1b380380610a1b83398101604081905261002f91610099565b61003833610049565b6001600160a01b03166080526100c9565b600080546001600160a01b038381166001600160a01b0319831681178455604051919092169283917f8be0079c531659141344cd1fd0a4f28419497f9722a3daafe3b4186f6b6457e09190a35050565b6000602082840312156100ab57600080fd5b81516001600160a01b03811681146100c257600080fd5b9392505050565b60805161092a6100f1600039600081816092015281816102f501526103be015261092a6000f3fe608060405234801561001057600080fd5b50600436106100885760003560e01c80638da5cb5b1161005b5780638da5cb5b14610133578063c5cc6b6a14610144578063dd1b9c4a14610157578063f2fde38b1461017457600080fd5b8063206c17bb1461008d5780635bb47808146100d1578063715018a61461010357806375baab8b1461010b575b600080fd5b6100b47f000000000000000000000000000000000000000000000000000000000000000081565b6040516001600160a01b0390911681526020015b60405180910390f35b6101016100df3660046106e5565b600180546001600160a01b0319166001600160a01b0392909216919091179055565b005b610101610187565b61011e610119366004610779565b61019b565b604080519283526020830191909152016100c8565b6000546001600160a01b03166100b4565b6001546100b4906001600160a01b031681565b6101606101f481565b60405162ffffff90911681526020016100c8565b6101016101823660046106e5565b6101c5565b61018f610243565b610199600061029d565b565b600080600091506101be83600001518460200151856040015186606001516102ed565b9050915091565b6101cd610243565b6001600160a01b0381166102375760405162461bcd60e51b815260206004820152602660248201527f4f776e61626c653a206e6577206f776e657220697320746865207a65726f206160448201526564647265737360d01b60648201526084015b60405180910390fd5b6102408161029d565b50565b6000546001600160a01b031633146101995760405162461bcd60e51b815260206004820181905260248201527f4f776e61626c653a2063616c6c6572206973206e6f7420746865206f776e6572604482015260640161022e565b600080546001600160a01b038381166001600160a01b0319831681178455604051919092169283917f8be0079c531659141344cd1fd0a4f28419497f9722a3daafe3b4186f6b6457e09190a35050565b600061031a857f000000000000000000000000000000000000000000000000000000000000000085610447565b60408051610100810182526001600160a01b038581168252848116602083019081526101f48385019081523360608501908152426080860190815260a086018c815260c087018c8152600060e08901908152985163414bf38960e01b8152885188166004820152955187166024870152935162ffffff1660448601529151851660648501525160848401525160a48301525160c48201529251811660e484015290917f00000000000000000000000000000000000000000000000000000000000000009091169063414bf3899061010401602060405180830381600087803b15801561040557600080fd5b505af1158015610419573d6000803e3d6000fd5b505050506040513d601f19601f8201168201806040525081019061043d919061087e565b9695505050505050565b61045381333086610463565b61045e8183856105a1565b505050565b604080516001600160a01b0385811660248301528481166044830152606480830185905283518084039091018152608490920183526020820180516001600160e01b03166323b872dd60e01b17905291516000928392908816916104c79190610897565b6000604051808303816000865af19150503d8060008114610504576040519150601f19603f3d011682016040523d82523d6000602084013e610509565b606091505b509150915081801561053357508051158061053357508080602001905181019061053391906108d2565b6105995760405162461bcd60e51b815260206004820152603160248201527f5472616e7366657248656c7065723a3a7472616e7366657246726f6d3a207472604482015270185b9cd9995c919c9bdb4819985a5b1959607a1b606482015260840161022e565b505050505050565b604080516001600160a01b038481166024830152604480830185905283518084039091018152606490920183526020820180516001600160e01b031663095ea7b360e01b17905291516000928392908716916105fd9190610897565b6000604051808303816000865af19150503d806000811461063a576040519150601f19603f3d011682016040523d82523d6000602084013e61063f565b606091505b509150915081801561066957508051158061066957508080602001905181019061066991906108d2565b6106c95760405162461bcd60e51b815260206004820152602b60248201527f5472616e7366657248656c7065723a3a73616665417070726f76653a2061707060448201526a1c9bdd994819985a5b195960aa1b606482015260840161022e565b5050505050565b6001600160a01b038116811461024057600080fd5b6000602082840312156106f757600080fd5b8135610702816106d0565b9392505050565b634e487b7160e01b600052604160045260246000fd5b60405160c0810167ffffffffffffffff8111828210171561074257610742610709565b60405290565b604051601f8201601f1916810167ffffffffffffffff8111828210171561077157610771610709565b604052919050565b6000602080838503121561078c57600080fd5b823567ffffffffffffffff808211156107a457600080fd5b9084019060c082870312156107b857600080fd5b6107c061071f565b82358152838301358482015260408301356107da816106d0565b604082015260608301356107ed816106d0565b60608201526080838101359082015260a08301358281111561080e57600080fd5b80840193505086601f84011261082357600080fd5b82358281111561083557610835610709565b610847601f8201601f19168601610748565b9250808352878582860101111561085d57600080fd5b808585018685013760009083019094019390935260a0830152509392505050565b60006020828403121561089057600080fd5b5051919050565b6000825160005b818110156108b8576020818601810151858301520161089e565b818111156108c7576000828501525b509190910192915050565b6000602082840312156108e457600080fd5b8151801515811461070257600080fdfea26469706673582212208d3c35aed35837a77ce4309cfc10e64fcfdff8c392f2ec5675d29c1e04e2c50e64736f6c63430008090033",
  "linkReferences": {},
  "deployedLinkReferences": {}
}