{
  "_format": "hh-sol-artifact-1",
  "contractName": "Factory",
  "sourceName": "contracts/Factory.sol",
  "abi": [
    {
      "anonymous": false,
      "inputs": [
        {
          "indexed": true,
          "internalType": "address",
          "name": "token0",
          "type": "address"
        },
        {
          "indexed": true,
          "internalType": "address",
          "name": "token1",
          "type": "address"
        },
        {
          "indexed": false,
          "internalType": "address",
          "name": "alp",
          "type": "address"
        },
        {
          "indexed": false,
          "internalType": "uint256",
          "name": "count",
          "type": "uint256"
        }
      ],
      "name": "AlpCreated",
      "type": "event"
    },
    {
      "anonymous": false,
      "inputs": [
        {
          "indexed": true,
          "internalType": "address",
          "name": "oldOwner",
          "type": "address"
        },
        {
          "indexed": true,
          "internalType": "address",
          "name": "newOwner",
          "type": "address"
        }
      ],
      "name": "OwnerChanged",
      "type": "event"
    },
    {
      "inputs": [
        {
          "internalType": "uint256",
          "name": "",
          "type": "uint256"
        }
      ],
      "name": "alps",
      "outputs": [
        {
          "internalType": "address",
          "name": "",
          "type": "address"
        }
      ],
      "stateMutability": "view",
      "type": "function"
    },
    {
      "inputs": [],
      "name": "countAlp",
      "outputs": [
        {
          "internalType": "uint256",
          "name": "",
          "type": "uint256"
        }
      ],
      "stateMutability": "view",
      "type": "function"
    },
    {
      "inputs": [
        {
          "internalType": "address",
          "name": "tokenA",
          "type": "address"
        },
        {
          "internalType": "address",
          "name": "tokenB",
          "type": "address"
        }
      ],
      "name": "createAlp",
      "outputs": [
        {
          "internalType": "address",
          "name": "alp",
          "type": "address"
        }
      ],
      "stateMutability": "nonpayable",
      "type": "function"
    },
    {
      "inputs": [
        {
          "internalType": "address",
          "name": "tokenA",
          "type": "address"
        },
        {
          "internalType": "address",
          "name": "tokenB",
          "type": "address"
        }
      ],
      "name": "getAlp",
      "outputs": [
        {
          "internalType": "address",
          "name": "alp",
          "type": "address"
        }
      ],
      "stateMutability": "view",
      "type": "function"
    },
    {
      "inputs": [
        {
          "internalType": "enum IExchange.DEX",
          "name": "type_",
          "type": "uint8"
        }
      ],
      "name": "getExchange",
      "outputs": [
        {
          "internalType": "contract IExchange",
          "name": "",
          "type": "address"
        }
      ],
      "stateMutability": "view",
      "type": "function"
    },
    {
      "inputs": [],
      "name": "owner",
      "outputs": [
        {
          "internalType": "address",
          "name": "",
          "type": "address"
        }
      ],
      "stateMutability": "view",
      "type": "function"
    },
    {
      "inputs": [
        {
          "internalType": "enum IExchange.DEX",
          "name": "type_",
          "type": "uint8"
        },
        {
          "internalType": "contract IExchange",
          "name": "exchange",
          "type": "address"
        }
      ],
      "name": "registerExchange",
      "outputs": [],
      "stateMutability": "nonpayable",
      "type": "function"
    },
    {
      "inputs": [
        {
          "internalType": "address",
          "name": "_owner",
          "type": "address"
        }
      ],
      "name": "setOwner",
      "outputs": [],
      "stateMutability": "nonpayable",
      "type": "function"
    }
  ],
  "bytecode": "0x608060405234801561001057600080fd5b5061131f806100206000396000f3fe608060405234801561001057600080fd5b50600436106100885760003560e01c80637911f0821161005b5780637911f082146100f85780638da5cb5b1461010b57806392e09a7b1461011e578063eb58a9d31461012f57600080fd5b806313af40351461008d5780632712392b146100a25780633e3d13b2146100d2578063426d88ce146100e5575b600080fd5b6100a061009b3660046105f9565b610142565b005b6100b56100b036600461061d565b6101b4565b6040516001600160a01b0390911681526020015b60405180910390f35b6100a06100e036600461066a565b61020c565b6100b56100f336600461061d565b61026a565b6100b5610106366004610686565b610561565b6000546100b5906001600160a01b031681565b6003546040519081526020016100c9565b6100b561013d3660046106a1565b6105aa565b6000546001600160a01b0316331461015957600080fd5b600080546040516001600160a01b03808516939216917fb532073b38c83145e3e5135377a08bf9aab55bc0fd7c1179cd4fb995d2a5159c91a3600080546001600160a01b0319166001600160a01b0392909216919091179055565b6000806000836001600160a01b0316856001600160a01b0316106101d95783856101dc565b84845b6001600160a01b039182166000908152600160209081526040808320938516835292905220541695945050505050565b8060026000846002811115610223576102236106ba565b6002811115610234576102346106ba565b815260200190815260200160002060006101000a8154816001600160a01b0302191690836001600160a01b031602179055505050565b6000816001600160a01b0316836001600160a01b031614156102d35760405162461bcd60e51b815260206004820152601c60248201527f466163746f72793a204944454e544943414c5f4144445245535345530000000060448201526064015b60405180910390fd5b600080836001600160a01b0316856001600160a01b0316106102f65783856102f9565b84845b90925090506001600160a01b03821661034c5760405162461bcd60e51b8152602060048201526015602482015274466163746f72793a205a45524f5f4144445245535360581b60448201526064016102ca565b6001600160a01b038281166000908152600160209081526040808320858516845290915290205416156103b65760405162461bcd60e51b8152602060048201526012602482015271119858dd1bdc9e4e8810531417d1561254d560721b60448201526064016102ca565b6000604051806020016103c8906105d4565b601f1982820381018352601f9091011660408190526bffffffffffffffffffffffff19606086811b8216602084015285901b166034820152909150600090604801604051602081830303815290604052805190602001209050808251602084016000f560405163485cc95560e01b81526001600160a01b03868116600483015285811660248301529196509086169063485cc95590604401600060405180830381600087803b15801561047a57600080fd5b505af115801561048e573d6000803e3d6000fd5b505050506001600160a01b0384811660008181526001602081815260408084208987168086529083528185208054978d166001600160a01b0319988916811790915584845282862087875284528286208054891682179055600380549586018155958690527fc2575a0e9e593c00f959f8c92f12db2869c3395a3b0502d05e2516446f71f85b9094018054909716841790965592548351928352908201527f1c3f509244da59cc6875f16c7d943c38ffd7ec5d58d7e4aecc7954fd10c621e1910160405180910390a35050505092915050565b600060026000836002811115610579576105796106ba565b600281111561058a5761058a6106ba565b81526020810191909152604001600020546001600160a01b031692915050565b600381815481106105ba57600080fd5b6000918252602090912001546001600160a01b0316905081565b610c19806106d183390190565b6001600160a01b03811681146105f657600080fd5b50565b60006020828403121561060b57600080fd5b8135610616816105e1565b9392505050565b6000806040838503121561063057600080fd5b823561063b816105e1565b9150602083013561064b816105e1565b809150509250929050565b80356003811061066557600080fd5b919050565b6000806040838503121561067d57600080fd5b61063b83610656565b60006020828403121561069857600080fd5b61061682610656565b6000602082840312156106b357600080fd5b5035919050565b634e487b7160e01b600052602160045260246000fdfe6080604052600160055534801561001557600080fd5b50600080546001600160a01b03191633179055610be2806100376000396000f3fe608060405234801561001057600080fd5b50600436106100925760003560e01c8063485cc95511610066578063485cc95514610119578063c45a01551461012c578063d21220a71461013f578063e2bbb15814610152578063f14e29f71461016557600080fd5b8062fdd58e146100975780630902f1ac146100bd5780630dfe1681146100d9578063441a3e7014610104575b600080fd5b6100aa6100a5366004610a30565b610178565b6040519081526020015b60405180910390f35b6003546004545b604080519283526020830191909152016100b4565b6001546100ec906001600160a01b031681565b6040516001600160a01b0390911681526020016100b4565b610117610112366004610a5a565b61019d565b005b610117610127366004610a7c565b61039e565b6000546100ec906001600160a01b031681565b6002546100ec906001600160a01b031681565b610117610160366004610a5a565b610417565b6100c4610173366004610aaf565b6104e6565b6006602052816000526040600020816002811061019457600080fd5b01549150829050565b336000908152600660205260409020805483111561020e5760405162461bcd60e51b8152602060048201526024808201527f414c503a20496e73756666696369656e742062616c616e636520666f7220746f60448201526306b656e360e41b60648201526084015b60405180910390fd5b818160010154101561026e5760405162461bcd60e51b8152602060048201526024808201527f414c503a20496e73756666696369656e742062616c616e636520666f7220746f6044820152636b656e3160e01b6064820152608401610205565b828160000160008282546102829190610afa565b9091555082905081600101600082825461029c9190610afa565b9250508190555082600360008282546102b59190610afa565b9250508190555081600460008282546102ce9190610afa565b90915550506001546102ea906001600160a01b0316338561067d565b600254610301906001600160a01b0316338461067d565b337fe08737ac48a1dab4b1a46c7dc9398bd5bfc6d7ad6fabb7cd8caa254de14def3584848460005b0154856001015460408051948552602085019390935291830152606082015260800160405180910390a27fcf2aa50876cdfbb541206f89af0ee78d44a2abf8d328e37fa4917f982149848a600354600454604051610391929190918252602082015260400190565b60405180910390a1505050565b6000546001600160a01b031633146103e95760405162461bcd60e51b815260206004820152600e60248201526d20a6281d102327a92124a22222a760911b6044820152606401610205565b600180546001600160a01b039384166001600160a01b03199182161790915560028054929093169116179055565b60015461042f906001600160a01b03163330856107ae565b600254610447906001600160a01b03163330846107ae565b81600360008282546104599190610b11565b9250508190555080600460008282546104729190610b11565b90915550503360009081526006602052604081209083908201600082825461049a9190610b11565b909155508290508160010160008282546104b49190610b11565b909155503390507f7162984403f6c73c8639375d45a9187dfd04602231bd8e587c415718b5f7e5f98484846000610329565b60008060648511156105335760405162461bcd60e51b8152602060048201526016602482015275414c503a20746f6f206d756368206c6576657261676560501b6044820152606401610205565b61053e600186610afa565b905061054a8185610b29565b6001549092506000906001600160a01b0385811691161461056d57600454610571565b6003545b90508281116105cd5760405162461bcd60e51b815260206004820152602260248201527f414c503a20496e73756666696369656e742066756e647320696e207265736572604482015261766560f01b6064820152608401610205565b6105d88433856108ec565b6105e384338561067d565b6001546001600160a01b038581169116141561061657826003600082825461060b9190610afa565b9091555061062e9050565b82600460008282546106289190610afa565b90915550505b7fcf2aa50876cdfbb541206f89af0ee78d44a2abf8d328e37fa4917f982149848a60035460045460405161066c929190918252602082015260400190565b60405180910390a150935093915050565b604080516001600160a01b038481166024830152604480830185905283518084039091018152606490920183526020820180516001600160e01b031663a9059cbb60e01b17905291516000928392908716916106d99190610b48565b6000604051808303816000865af19150503d8060008114610716576040519150601f19603f3d011682016040523d82523d6000602084013e61071b565b606091505b50915091508180156107455750805115806107455750808060200190518101906107459190610b83565b6107a75760405162461bcd60e51b815260206004820152602d60248201527f5472616e7366657248656c7065723a3a736166655472616e736665723a20747260448201526c185b9cd9995c8819985a5b1959609a1b6064820152608401610205565b5050505050565b604080516001600160a01b0385811660248301528481166044830152606480830185905283518084039091018152608490920183526020820180516001600160e01b03166323b872dd60e01b17905291516000928392908816916108129190610b48565b6000604051808303816000865af19150503d806000811461084f576040519150601f19603f3d011682016040523d82523d6000602084013e610854565b606091505b509150915081801561087e57508051158061087e57508080602001905181019061087e9190610b83565b6108e45760405162461bcd60e51b815260206004820152603160248201527f5472616e7366657248656c7065723a3a7472616e7366657246726f6d3a207472604482015270185b9cd9995c919c9bdb4819985a5b1959607a1b6064820152608401610205565b505050505050565b604080516001600160a01b038481166024830152604480830185905283518084039091018152606490920183526020820180516001600160e01b031663095ea7b360e01b17905291516000928392908716916109489190610b48565b6000604051808303816000865af19150503d8060008114610985576040519150601f19603f3d011682016040523d82523d6000602084013e61098a565b606091505b50915091508180156109b45750805115806109b45750808060200190518101906109b49190610b83565b6107a75760405162461bcd60e51b815260206004820152602b60248201527f5472616e7366657248656c7065723a3a73616665417070726f76653a2061707060448201526a1c9bdd994819985a5b195960aa1b6064820152608401610205565b80356001600160a01b0381168114610a2b57600080fd5b919050565b60008060408385031215610a4357600080fd5b610a4c83610a14565b946020939093013593505050565b60008060408385031215610a6d57600080fd5b50508035926020909101359150565b60008060408385031215610a8f57600080fd5b610a9883610a14565b9150610aa660208401610a14565b90509250929050565b600080600060608486031215610ac457600080fd5b8335925060208401359150610adb60408501610a14565b90509250925092565b634e487b7160e01b600052601160045260246000fd5b600082821015610b0c57610b0c610ae4565b500390565b60008219821115610b2457610b24610ae4565b500190565b6000816000190483118215151615610b4357610b43610ae4565b500290565b6000825160005b81811015610b695760208186018101518583015201610b4f565b81811115610b78576000828501525b509190910192915050565b600060208284031215610b9557600080fd5b81518015158114610ba557600080fd5b939250505056fea2646970667358221220b359ef259d0606c565c3319fd92c945e7c86ee648ba92c681e048c0acc2875ee64736f6c63430008090033a264697066735822122031408cf6869b3a59ebcfb381b1d7fd129e1816853f4b3a6e0b55ba6253b4be9e64736f6c63430008090033",
  "linkReferences": {},
  "deployedLinkReferences": {}
}