{
  "_format": "hh-sol-artifact-1",
  "contractName": "Factory",
  "sourceName": "contracts/Factory.sol",
  "abi": [
    {
      "anonymous": false,
      "inputs": [
        {
          "indexed": true,
          "internalType": "address",
          "name": "token0",
          "type": "address"
        },
        {
          "indexed": true,
          "internalType": "address",
          "name": "token1",
          "type": "address"
        },
        {
          "indexed": false,
          "internalType": "address",
          "name": "alp",
          "type": "address"
        },
        {
          "indexed": false,
          "internalType": "uint256",
          "name": "count",
          "type": "uint256"
        }
      ],
      "name": "AlpCreated",
      "type": "event"
    },
    {
      "anonymous": false,
      "inputs": [
        {
          "indexed": true,
          "internalType": "address",
          "name": "oldOwner",
          "type": "address"
        },
        {
          "indexed": true,
          "internalType": "address",
          "name": "newOwner",
          "type": "address"
        }
      ],
      "name": "OwnerChanged",
      "type": "event"
    },
    {
      "inputs": [
        {
          "internalType": "uint256",
          "name": "",
          "type": "uint256"
        }
      ],
      "name": "alps",
      "outputs": [
        {
          "internalType": "address",
          "name": "",
          "type": "address"
        }
      ],
      "stateMutability": "view",
      "type": "function"
    },
    {
      "inputs": [],
      "name": "countAlp",
      "outputs": [
        {
          "internalType": "uint256",
          "name": "",
          "type": "uint256"
        }
      ],
      "stateMutability": "view",
      "type": "function"
    },
    {
      "inputs": [
        {
          "internalType": "address",
          "name": "tokenA",
          "type": "address"
        },
        {
          "internalType": "address",
          "name": "tokenB",
          "type": "address"
        }
      ],
      "name": "createAlp",
      "outputs": [
        {
          "internalType": "address",
          "name": "alp",
          "type": "address"
        }
      ],
      "stateMutability": "nonpayable",
      "type": "function"
    },
    {
      "inputs": [
        {
          "internalType": "address",
          "name": "tokenA",
          "type": "address"
        },
        {
          "internalType": "address",
          "name": "tokenB",
          "type": "address"
        }
      ],
      "name": "getAlp",
      "outputs": [
        {
          "internalType": "address",
          "name": "alp",
          "type": "address"
        }
      ],
      "stateMutability": "view",
      "type": "function"
    },
    {
      "inputs": [
        {
          "internalType": "enum IExchange.DEX",
          "name": "type_",
          "type": "uint8"
        }
      ],
      "name": "getExchange",
      "outputs": [
        {
          "internalType": "contract IExchange",
          "name": "",
          "type": "address"
        }
      ],
      "stateMutability": "view",
      "type": "function"
    },
    {
      "inputs": [],
      "name": "owner",
      "outputs": [
        {
          "internalType": "address",
          "name": "",
          "type": "address"
        }
      ],
      "stateMutability": "view",
      "type": "function"
    },
    {
      "inputs": [
        {
          "internalType": "enum IExchange.DEX",
          "name": "type_",
          "type": "uint8"
        },
        {
          "internalType": "contract IExchange",
          "name": "exchange",
          "type": "address"
        }
      ],
      "name": "registerExchange",
      "outputs": [],
      "stateMutability": "nonpayable",
      "type": "function"
    },
    {
      "inputs": [
        {
          "internalType": "address",
          "name": "_owner",
          "type": "address"
        }
      ],
      "name": "setOwner",
      "outputs": [],
      "stateMutability": "nonpayable",
      "type": "function"
    }
  ],
  "bytecode": "0x608060405234801561001057600080fd5b506111f9806100206000396000f3fe608060405234801561001057600080fd5b50600436106100885760003560e01c80637911f0821161005b5780637911f082146100f85780638da5cb5b1461010b57806392e09a7b1461011e578063eb58a9d31461012f57600080fd5b806313af40351461008d5780632712392b146100a25780633e3d13b2146100d2578063426d88ce146100e5575b600080fd5b6100a061009b3660046105f9565b610142565b005b6100b56100b036600461061d565b6101b4565b6040516001600160a01b0390911681526020015b60405180910390f35b6100a06100e036600461066a565b61020c565b6100b56100f336600461061d565b61026a565b6100b5610106366004610686565b610561565b6000546100b5906001600160a01b031681565b6003546040519081526020016100c9565b6100b561013d3660046106a1565b6105aa565b6000546001600160a01b0316331461015957600080fd5b600080546040516001600160a01b03808516939216917fb532073b38c83145e3e5135377a08bf9aab55bc0fd7c1179cd4fb995d2a5159c91a3600080546001600160a01b0319166001600160a01b0392909216919091179055565b6000806000836001600160a01b0316856001600160a01b0316106101d95783856101dc565b84845b6001600160a01b039182166000908152600160209081526040808320938516835292905220541695945050505050565b8060026000846002811115610223576102236106ba565b6002811115610234576102346106ba565b815260200190815260200160002060006101000a8154816001600160a01b0302191690836001600160a01b031602179055505050565b6000816001600160a01b0316836001600160a01b031614156102d35760405162461bcd60e51b815260206004820152601c60248201527f466163746f72793a204944454e544943414c5f4144445245535345530000000060448201526064015b60405180910390fd5b600080836001600160a01b0316856001600160a01b0316106102f65783856102f9565b84845b90925090506001600160a01b03821661034c5760405162461bcd60e51b8152602060048201526015602482015274466163746f72793a205a45524f5f4144445245535360581b60448201526064016102ca565b6001600160a01b038281166000908152600160209081526040808320858516845290915290205416156103b65760405162461bcd60e51b8152602060048201526012602482015271119858dd1bdc9e4e8810531417d1561254d560721b60448201526064016102ca565b6000604051806020016103c8906105d4565b601f1982820381018352601f9091011660408190526bffffffffffffffffffffffff19606086811b8216602084015285901b166034820152909150600090604801604051602081830303815290604052805190602001209050808251602084016000f560405163485cc95560e01b81526001600160a01b03868116600483015285811660248301529196509086169063485cc95590604401600060405180830381600087803b15801561047a57600080fd5b505af115801561048e573d6000803e3d6000fd5b505050506001600160a01b0384811660008181526001602081815260408084208987168086529083528185208054978d166001600160a01b0319988916811790915584845282862087875284528286208054891682179055600380549586018155958690527fc2575a0e9e593c00f959f8c92f12db2869c3395a3b0502d05e2516446f71f85b9094018054909716841790965592548351928352908201527f1c3f509244da59cc6875f16c7d943c38ffd7ec5d58d7e4aecc7954fd10c621e1910160405180910390a35050505092915050565b600060026000836002811115610579576105796106ba565b600281111561058a5761058a6106ba565b81526020810191909152604001600020546001600160a01b031692915050565b600381815481106105ba57600080fd5b6000918252602090912001546001600160a01b0316905081565b610af3806106d183390190565b6001600160a01b03811681146105f657600080fd5b50565b60006020828403121561060b57600080fd5b8135610616816105e1565b9392505050565b6000806040838503121561063057600080fd5b823561063b816105e1565b9150602083013561064b816105e1565b809150509250929050565b80356003811061066557600080fd5b919050565b6000806040838503121561067d57600080fd5b61063b83610656565b60006020828403121561069857600080fd5b61061682610656565b6000602082840312156106b357600080fd5b5035919050565b634e487b7160e01b600052602160045260246000fdfe6080604052600160055534801561001557600080fd5b50600080546001600160a01b03191633179055610abc806100376000396000f3fe608060405234801561001057600080fd5b50600436106100885760003560e01c8063c45a01551161005b578063c45a015514610101578063d21220a714610114578063f14e29f714610127578063f3fef3a31461013a57600080fd5b80630902f1ac1461008d5780630dfe1681146100ae57806347e7ef24146100d9578063485cc955146100ee575b600080fd5b6003546004545b604080519283526020830191909152015b60405180910390f35b6001546100c1906001600160a01b031681565b6040516001600160a01b0390911681526020016100a5565b6100ec6100e736600461092c565b61014d565b005b6100ec6100fc366004610956565b6102a8565b6000546100c1906001600160a01b031681565b6002546100c1906001600160a01b031681565b610094610135366004610989565b610321565b6100ec61014836600461092c565b610472565b6001546001600160a01b038381169116148061017657506002546001600160a01b038381169116145b6101c25760405162461bcd60e51b81526020600482015260186024820152771053140e88151bdad95b88191bdb89dd081cdd5c1c1bdc9d60421b60448201526064015b60405180910390fd5b6101ce82333084610579565b6001546001600160a01b03838116911614156102015780600360008282546101f691906109d4565b909155506102199050565b806004600082825461021391906109d4565b90915550505b604080516001600160a01b03841681526020810183905233917f5548c837ab068cf56a2c2479df0882a4922fd203edb7517321831d95078c5f6291015b60405180910390a27fcf2aa50876cdfbb541206f89af0ee78d44a2abf8d328e37fa4917f982149848a60035460045460405161029c929190918252602082015260400190565b60405180910390a15050565b6000546001600160a01b031633146102f35760405162461bcd60e51b815260206004820152600e60248201526d20a6281d102327a92124a22222a760911b60448201526064016101b9565b600180546001600160a01b039384166001600160a01b03199182161790915560028054929093169116179055565b600080606485111561036e5760405162461bcd60e51b8152602060048201526016602482015275414c503a20746f6f206d756368206c6576657261676560501b60448201526064016101b9565b6103796001866109ec565b90506103858185610a03565b6001549092506000906001600160a01b038581169116146103a8576004546103ac565b6003545b90508281116104085760405162461bcd60e51b815260206004820152602260248201527f414c503a20496e73756666696369656e742066756e647320696e207265736572604482015261766560f01b60648201526084016101b9565b6104138433856106b7565b61041e8433856107e6565b6001546001600160a01b038581169116141561045157826003600082825461044691906109ec565b909155506104699050565b826004600082825461046391906109ec565b90915550505b50935093915050565b6001546001600160a01b038381169116148061049b57506002546001600160a01b038381169116145b6104e25760405162461bcd60e51b81526020600482015260186024820152771053140e88151bdad95b88191bdb89dd081cdd5c1c1bdc9d60421b60448201526064016101b9565b6104ed8233836107e6565b6001546001600160a01b038381169116141561052057806003600082825461051591906109ec565b909155506105389050565b806004600082825461053291906109ec565b90915550505b604080516001600160a01b03841681526020810183905233917f9b1bfa7fa9ee420a16e124f794c35ac9f90472acc99140eb2f6447c714cad8eb9101610256565b604080516001600160a01b0385811660248301528481166044830152606480830185905283518084039091018152608490920183526020820180516001600160e01b03166323b872dd60e01b17905291516000928392908816916105dd9190610a22565b6000604051808303816000865af19150503d806000811461061a576040519150601f19603f3d011682016040523d82523d6000602084013e61061f565b606091505b50915091508180156106495750805115806106495750808060200190518101906106499190610a5d565b6106af5760405162461bcd60e51b815260206004820152603160248201527f5472616e7366657248656c7065723a3a7472616e7366657246726f6d3a207472604482015270185b9cd9995c919c9bdb4819985a5b1959607a1b60648201526084016101b9565b505050505050565b604080516001600160a01b038481166024830152604480830185905283518084039091018152606490920183526020820180516001600160e01b031663095ea7b360e01b17905291516000928392908716916107139190610a22565b6000604051808303816000865af19150503d8060008114610750576040519150601f19603f3d011682016040523d82523d6000602084013e610755565b606091505b509150915081801561077f57508051158061077f57508080602001905181019061077f9190610a5d565b6107df5760405162461bcd60e51b815260206004820152602b60248201527f5472616e7366657248656c7065723a3a73616665417070726f76653a2061707060448201526a1c9bdd994819985a5b195960aa1b60648201526084016101b9565b5050505050565b604080516001600160a01b038481166024830152604480830185905283518084039091018152606490920183526020820180516001600160e01b031663a9059cbb60e01b17905291516000928392908716916108429190610a22565b6000604051808303816000865af19150503d806000811461087f576040519150601f19603f3d011682016040523d82523d6000602084013e610884565b606091505b50915091508180156108ae5750805115806108ae5750808060200190518101906108ae9190610a5d565b6107df5760405162461bcd60e51b815260206004820152602d60248201527f5472616e7366657248656c7065723a3a736166655472616e736665723a20747260448201526c185b9cd9995c8819985a5b1959609a1b60648201526084016101b9565b80356001600160a01b038116811461092757600080fd5b919050565b6000806040838503121561093f57600080fd5b61094883610910565b946020939093013593505050565b6000806040838503121561096957600080fd5b61097283610910565b915061098060208401610910565b90509250929050565b60008060006060848603121561099e57600080fd5b83359250602084013591506109b560408501610910565b90509250925092565b634e487b7160e01b600052601160045260246000fd5b600082198211156109e7576109e76109be565b500190565b6000828210156109fe576109fe6109be565b500390565b6000816000190483118215151615610a1d57610a1d6109be565b500290565b6000825160005b81811015610a435760208186018101518583015201610a29565b81811115610a52576000828501525b509190910192915050565b600060208284031215610a6f57600080fd5b81518015158114610a7f57600080fd5b939250505056fea26469706673582212204a59c32b48c3c79fcc37aa675ec7d0c19e5cac3e8ec861cc9ec7192aad001a6a64736f6c63430008090033a264697066735822122077b0fa4c969ebcd9f2c34646ddbb2cea20ee9e057876777859e96875e0dc700164736f6c63430008090033",
  "linkReferences": {},
  "deployedLinkReferences": {}
}