{
  "_format": "hh-sol-artifact-1",
  "contractName": "Exchange",
  "sourceName": "contracts/Exchange.sol",
  "abi": [
    {
      "anonymous": false,
      "inputs": [
        {
          "indexed": true,
          "internalType": "address",
          "name": "previousOwner",
          "type": "address"
        },
        {
          "indexed": true,
          "internalType": "address",
          "name": "newOwner",
          "type": "address"
        }
      ],
      "name": "OwnershipTransferred",
      "type": "event"
    },
    {
      "inputs": [],
      "name": "_factory",
      "outputs": [
        {
          "internalType": "contract IFactory",
          "name": "",
          "type": "address"
        }
      ],
      "stateMutability": "view",
      "type": "function"
    },
    {
      "inputs": [],
      "name": "owner",
      "outputs": [
        {
          "internalType": "address",
          "name": "",
          "type": "address"
        }
      ],
      "stateMutability": "view",
      "type": "function"
    },
    {
      "inputs": [],
      "name": "renounceOwnership",
      "outputs": [],
      "stateMutability": "nonpayable",
      "type": "function"
    },
    {
      "inputs": [
        {
          "internalType": "contract IFactory",
          "name": "factory",
          "type": "address"
        }
      ],
      "name": "setFactory",
      "outputs": [],
      "stateMutability": "nonpayable",
      "type": "function"
    },
    {
      "inputs": [
        {
          "components": [
            {
              "internalType": "uint256",
              "name": "amountIn",
              "type": "uint256"
            },
            {
              "internalType": "uint256",
              "name": "amountOut",
              "type": "uint256"
            },
            {
              "internalType": "address",
              "name": "tokenIn",
              "type": "address"
            },
            {
              "internalType": "address",
              "name": "tokenOut",
              "type": "address"
            },
            {
              "internalType": "uint256",
              "name": "timestamp",
              "type": "uint256"
            }
          ],
          "internalType": "struct IExchange.SwapParams",
          "name": "params",
          "type": "tuple"
        }
      ],
      "name": "swap",
      "outputs": [
        {
          "internalType": "uint256",
          "name": "amountIn",
          "type": "uint256"
        },
        {
          "internalType": "uint256",
          "name": "amountOut",
          "type": "uint256"
        }
      ],
      "stateMutability": "nonpayable",
      "type": "function"
    },
    {
      "inputs": [
        {
          "internalType": "address",
          "name": "newOwner",
          "type": "address"
        }
      ],
      "name": "transferOwnership",
      "outputs": [],
      "stateMutability": "nonpayable",
      "type": "function"
    }
  ],
  "bytecode": "0x608060405234801561001057600080fd5b5061001a3361001f565b61006f565b600080546001600160a01b038381166001600160a01b0319831681178455604051919092169283917f8be0079c531659141344cd1fd0a4f28419497f9722a3daafe3b4186f6b6457e09190a35050565b6105438061007e6000396000f3fe608060405234801561001057600080fd5b50600436106100625760003560e01c80635bb4780814610067578063715018a614610099578063767723cc146100a15780638da5cb5b146100ce578063c5cc6b6a146100f3578063f2fde38b14610106575b600080fd5b6100976100753660046103f1565b600180546001600160a01b0319166001600160a01b0392909216919091179055565b005b610097610119565b6100b46100af366004610415565b61012d565b604080519283526020830191909152015b60405180910390f35b6000546001600160a01b03165b6040516001600160a01b0390911681526020016100c5565b6001546100db906001600160a01b031681565b6100976101143660046103f1565b6102b9565b610121610332565b61012b600061038c565b565b600154604051633c88f84160e11b8152600091829182916001600160a01b031690637911f082906101629084906004016104a4565b60206040518083038186803b15801561017a57600080fd5b505afa15801561018e573d6000803e3d6000fd5b505050506040513d601f19601f820116820180604052508101906101b291906104cc565b90506001600160a01b0381166102085760405162461bcd60e51b815260206004820152601660248201527545786368616e67653a205a45524f5f4144445245535360501b60448201526064015b60405180910390fd5b60408051631d9dc8f360e21b81528551600482015260208601516024820152908501516001600160a01b0390811660448301526060860151811660648301526080860151608483015282169063767723cc9060a4016040805180830381600087803b15801561027657600080fd5b505af115801561028a573d6000803e3d6000fd5b505050506040513d601f19601f820116820180604052508101906102ae91906104e9565b909590945092505050565b6102c1610332565b6001600160a01b0381166103265760405162461bcd60e51b815260206004820152602660248201527f4f776e61626c653a206e6577206f776e657220697320746865207a65726f206160448201526564647265737360d01b60648201526084016101ff565b61032f8161038c565b50565b6000546001600160a01b0316331461012b5760405162461bcd60e51b815260206004820181905260248201527f4f776e61626c653a2063616c6c6572206973206e6f7420746865206f776e657260448201526064016101ff565b600080546001600160a01b038381166001600160a01b0319831681178455604051919092169283917f8be0079c531659141344cd1fd0a4f28419497f9722a3daafe3b4186f6b6457e09190a35050565b6001600160a01b038116811461032f57600080fd5b60006020828403121561040357600080fd5b813561040e816103dc565b9392505050565b600060a0828403121561042757600080fd5b60405160a0810181811067ffffffffffffffff8211171561045857634e487b7160e01b600052604160045260246000fd5b806040525082358152602083013560208201526040830135610479816103dc565b6040820152606083013561048c816103dc565b60608201526080928301359281019290925250919050565b60208101600383106104c657634e487b7160e01b600052602160045260246000fd5b91905290565b6000602082840312156104de57600080fd5b815161040e816103dc565b600080604083850312156104fc57600080fd5b50508051602090910151909290915056fea26469706673582212206d326016528358ce38ab9e8d799ae0c6021da66450106676c53830e99cc74ff964736f6c63430008090033",
  "linkReferences": {},
  "deployedLinkReferences": {}
}