{
  "_format": "hh-sol-artifact-1",
  "contractName": "Exchange",
  "sourceName": "contracts/Exchange.sol",
  "abi": [
    {
      "anonymous": false,
      "inputs": [
        {
          "indexed": true,
          "internalType": "address",
          "name": "previousOwner",
          "type": "address"
        },
        {
          "indexed": true,
          "internalType": "address",
          "name": "newOwner",
          "type": "address"
        }
      ],
      "name": "OwnershipTransferred",
      "type": "event"
    },
    {
      "inputs": [],
      "name": "_factory",
      "outputs": [
        {
          "internalType": "contract IFactory",
          "name": "",
          "type": "address"
        }
      ],
      "stateMutability": "view",
      "type": "function"
    },
    {
      "inputs": [],
      "name": "owner",
      "outputs": [
        {
          "internalType": "address",
          "name": "",
          "type": "address"
        }
      ],
      "stateMutability": "view",
      "type": "function"
    },
    {
      "inputs": [],
      "name": "renounceOwnership",
      "outputs": [],
      "stateMutability": "nonpayable",
      "type": "function"
    },
    {
      "inputs": [
        {
          "internalType": "contract IFactory",
          "name": "factory",
          "type": "address"
        }
      ],
      "name": "setFactory",
      "outputs": [],
      "stateMutability": "nonpayable",
      "type": "function"
    },
    {
      "inputs": [
        {
          "components": [
            {
              "internalType": "uint256",
              "name": "amountIn",
              "type": "uint256"
            },
            {
              "internalType": "uint256",
              "name": "amountOut",
              "type": "uint256"
            },
            {
              "internalType": "address",
              "name": "tokenIn",
              "type": "address"
            },
            {
              "internalType": "address",
              "name": "tokenOut",
              "type": "address"
            },
            {
              "internalType": "uint256",
              "name": "timestamp",
              "type": "uint256"
            },
            {
              "internalType": "bytes",
              "name": "path",
              "type": "bytes"
            }
          ],
          "internalType": "struct IExchange.SwapParams",
          "name": "params",
          "type": "tuple"
        }
      ],
      "name": "swap",
      "outputs": [
        {
          "internalType": "uint256",
          "name": "amountIn",
          "type": "uint256"
        },
        {
          "internalType": "uint256",
          "name": "amountOut",
          "type": "uint256"
        }
      ],
      "stateMutability": "nonpayable",
      "type": "function"
    },
    {
      "inputs": [
        {
          "internalType": "address",
          "name": "newOwner",
          "type": "address"
        }
      ],
      "name": "transferOwnership",
      "outputs": [],
      "stateMutability": "nonpayable",
      "type": "function"
    }
  ],
  "bytecode": "0x608060405234801561001057600080fd5b5061001a3361001f565b61006f565b600080546001600160a01b038381166001600160a01b0319831681178455604051919092169283917f8be0079c531659141344cd1fd0a4f28419497f9722a3daafe3b4186f6b6457e09190a35050565b6106a08061007e6000396000f3fe608060405234801561001057600080fd5b50600436106100625760003560e01c80635bb4780814610067578063715018a61461009957806375baab8b146100a15780638da5cb5b146100ce578063c5cc6b6a146100f3578063f2fde38b14610106575b600080fd5b6100976100753660046103c8565b600180546001600160a01b0319166001600160a01b0392909216919091179055565b005b610097610119565b6100b46100af36600461045c565b61012d565b604080519283526020830191909152015b60405180910390f35b6000546001600160a01b03165b6040516001600160a01b0390911681526020016100c5565b6001546100db906001600160a01b031681565b6100976101143660046103c8565b610290565b610121610309565b61012b6000610363565b565b600154604051633c88f84160e11b8152600091829182916001600160a01b031690637911f08290610162908490600401610561565b60206040518083038186803b15801561017a57600080fd5b505afa15801561018e573d6000803e3d6000fd5b505050506040513d601f19601f820116820180604052508101906101b29190610589565b90506001600160a01b0381166102085760405162461bcd60e51b815260206004820152601660248201527545786368616e67653a205a45524f5f4144445245535360501b60448201526064015b60405180910390fd5b6040516375baab8b60e01b81526001600160a01b038216906375baab8b906102349087906004016105a6565b6040805180830381600087803b15801561024d57600080fd5b505af1158015610261573d6000803e3d6000fd5b505050506040513d601f19601f820116820180604052508101906102859190610646565b909590945092505050565b610298610309565b6001600160a01b0381166102fd5760405162461bcd60e51b815260206004820152602660248201527f4f776e61626c653a206e6577206f776e657220697320746865207a65726f206160448201526564647265737360d01b60648201526084016101ff565b61030681610363565b50565b6000546001600160a01b0316331461012b5760405162461bcd60e51b815260206004820181905260248201527f4f776e61626c653a2063616c6c6572206973206e6f7420746865206f776e657260448201526064016101ff565b600080546001600160a01b038381166001600160a01b0319831681178455604051919092169283917f8be0079c531659141344cd1fd0a4f28419497f9722a3daafe3b4186f6b6457e09190a35050565b6001600160a01b038116811461030657600080fd5b6000602082840312156103da57600080fd5b81356103e5816103b3565b9392505050565b634e487b7160e01b600052604160045260246000fd5b60405160c0810167ffffffffffffffff81118282101715610425576104256103ec565b60405290565b604051601f8201601f1916810167ffffffffffffffff81118282101715610454576104546103ec565b604052919050565b6000602080838503121561046f57600080fd5b823567ffffffffffffffff8082111561048757600080fd5b9084019060c0828703121561049b57600080fd5b6104a3610402565b82358152838301358482015260408301356104bd816103b3565b604082015260608301356104d0816103b3565b60608201526080838101359082015260a0830135828111156104f157600080fd5b80840193505086601f84011261050657600080fd5b823582811115610518576105186103ec565b61052a601f8201601f1916860161042b565b9250808352878582860101111561054057600080fd5b808585018685013760009083019094019390935260a0830152509392505050565b602081016003831061058357634e487b7160e01b600052602160045260246000fd5b91905290565b60006020828403121561059b57600080fd5b81516103e5816103b3565b60006020808352835181840152808401516040840152604084015160018060a01b0380821660608601528060608701511660808601525050608084015160a084015260a084015160c08085015280518060e086015260005b8181101561061b57828101840151868201610100015283016105fe565b8181111561062e57600061010083880101525b50601f01601f19169390930161010001949350505050565b6000806040838503121561065957600080fd5b50508051602090910151909290915056fea2646970667358221220c75f9899d9619eaeb957f6aa6f976a6be02282817b5ff6a798a1ace895f3f3e864736f6c63430008090033",
  "linkReferences": {},
  "deployedLinkReferences": {}
}